:100000000C942A000C9434000C9434000C943400AA
:100010000C9434000C9434000C9434000C94340090
:100020000C9434000C9434000C9434000C94340080
:100030000C9434000C9434000C9434000C94340070
:100040000C9434000C9434000C9434000C94340060
:100050000C94340011241FBECFE5D8E0DEBFCDBF25
:100060000E9454010C9467010C940000683090F5D4
:10007000413089F5813089F0882329F08230B9F048
:100080008330F9F008958AB321E030E001C0220FF7
:100090006A95EAF7822B8ABB089587B321E030E0A6
:1000A00001C0220F6A95EAF7822B87BB089584B3BB
:1000B00021E030E001C0220F6A95EAF7822B84BB71
:1000C000089581B321E030E001C0220F6A95EAF77C
:1000D000822B81BB08954111FDCF813089F08823A7
:1000E00029F08230B9F08330F9F008952AB381E025
:1000F00090E001C0880F6A95EAF780958223CBCF04
:1001000027B381E090E001C0880F6A95EAF78095F7
:100110008223CBCF24B381E090E001C0880F6A95A1
:10012000EAF780958223CBCF21B381E090E001C034
:10013000880F6A95EAF780958223CBCF683090F5D7
:10014000413089F5813089F0882329F08230B9F077
:100150008330F9F008958BB321E030E001C0220F25
:100160006A95EAF7822B8BBB089588B321E030E0D3
:1001700001C0220F6A95EAF7822B88BB089585B3E8
:1001800021E030E001C0220F6A95EAF7822B85BB9F
:10019000089582B321E030E001C0220F6A95EAF7AA
:1001A000822B82BB08954111FDCF813089F08823D5
:1001B00029F08230B9F08330F9F008952BB381E053
:1001C00090E001C0880F6A95EAF780958223CBCF33
:1001D00028B381E090E001C0880F6A95EAF7809526
:1001E0008223CBCF25B381E090E001C0880F6A95D0
:1001F000EAF780958223CBCF22B381E090E001C063
:10020000880F6A95EAF780958223CBCF683080F516
:10021000813089F0882329F08230B9F08330F9F0F9
:1002200008958BB321E030E001C0220F6A95EAF710
:1002300082278BBB089588B321E030E001C0220FF4
:100240006A95EAF7822788BB089585B321E030E0FC
:1002500001C0220F6A95EAF7822785BB089582B311
:1002600021E030E001C0220F6A95EAF7822782BBC5
:100270000895683040F4813089F0882331F082306D
:1002800079F0833079F080E0089589B390E002C07E
:10029000959587956A95E2F78170089586B3F6CFB4
:1002A00083B3F4CF80B3F2CF41E060E080E00E94FE
:1002B000360060E080E00E9406012FEF84E39CE0BE
:1002C000215080409040E1F700C00000F2CFF89448
:0202D000FFCF5E
:00000001FF
